:10E000005542200135D0085A8245000231400003B4
:10E010003F4000000F9308249242000220012F830A
:10E020009F4F80E00002F8233F4000000F93072439
:10E030009242000220011F83CF430002F923B24025
:10E04000805A2001F2D041002200F2D22700F2D201
:10E050002100F2D22400F2D2250032D2F2E04000B8
:10E060002100FC3F32D0F000FD3F30407EE00F1237
:10E07000D2E32100F2F0F7FF23003F410013001329
:10FFE0006AE06AE06EE06AE06AE06AE06AE06AE0BD
:10FFF0006AE06AE06AE06AE06AE06AE06AE000E01B
:040000030000E00019
:00000001FF
